{
  "contractName": "Auction",
  "abi": [
    {
      "constant": true,
      "inputs": [],
      "name": "Mycar",
      "outputs": [
        {
          "name": "Brand",
          "type": "string"
        },
        {
          "name": "Rnumber",
          "type": "string"
        },
        {
          "name": "owner",
          "type": "address"
        }
      ],
      "payable": false,
      "stateMutability": "view",
      "type": "function"
    },
    {
      "constant": true,
      "inputs": [
        {
          "name": "",
          "type": "address"
        }
      ],
      "name": "bids",
      "outputs": [
        {
          "name": "",
          "type": "uint256"
        }
      ],
      "payable": false,
      "stateMutability": "view",
      "type": "function"
    },
    {
      "constant": true,
      "inputs": [],
      "name": "highestBidder",
      "outputs": [
        {
          "name": "",
          "type": "address"
        }
      ],
      "payable": false,
      "stateMutability": "view",
      "type": "function"
    },
    {
      "constant": true,
      "inputs": [],
      "name": "auction_end",
      "outputs": [
        {
          "name": "",
          "type": "uint256"
        }
      ],
      "payable": false,
      "stateMutability": "view",
      "type": "function"
    },
    {
      "constant": true,
      "inputs": [],
      "name": "highestBid",
      "outputs": [
        {
          "name": "",
          "type": "uint256"
        }
      ],
      "payable": false,
      "stateMutability": "view",
      "type": "function"
    },
    {
      "inputs": [
        {
          "name": "_biddingTime",
          "type": "uint256"
        },
        {
          "name": "_brand",
          "type": "string"
        },
        {
          "name": "_Rnumber",
          "type": "string"
        }
      ],
      "payable": false,
      "stateMutability": "nonpayable",
      "type": "constructor"
    },
    {
      "anonymous": false,
      "inputs": [
        {
          "indexed": false,
          "name": "highestBidder",
          "type": "address"
        },
        {
          "indexed": false,
          "name": "highestBid",
          "type": "uint256"
        }
      ],
      "name": "BidEvent",
      "type": "event"
    },
    {
      "anonymous": false,
      "inputs": [
        {
          "indexed": false,
          "name": "withdrawer",
          "type": "address"
        },
        {
          "indexed": false,
          "name": "amount",
          "type": "uint256"
        }
      ],
      "name": "WithdrawalEvent",
      "type": "event"
    },
    {
      "constant": true,
      "inputs": [],
      "name": "getAuctionDetails",
      "outputs": [
        {
          "name": "",
          "type": "uint256"
        },
        {
          "name": "",
          "type": "uint256"
        },
        {
          "name": "",
          "type": "address"
        },
        {
          "name": "",
          "type": "address"
        }
      ],
      "payable": false,
      "stateMutability": "view",
      "type": "function"
    },
    {
      "constant": false,
      "inputs": [],
      "name": "bid",
      "outputs": [
        {
          "name": "",
          "type": "bool"
        }
      ],
      "payable": true,
      "stateMutability": "payable",
      "type": "function"
    },
    {
      "constant": true,
      "inputs": [],
      "name": "auction_status",
      "outputs": [
        {
          "name": "state",
          "type": "bool"
        }
      ],
      "payable": false,
      "stateMutability": "view",
      "type": "function"
    },
    {
      "constant": false,
      "inputs": [],
      "name": "getAmount",
      "outputs": [
        {
          "name": "",
          "type": "bool"
        }
      ],
      "payable": false,
      "stateMutability": "nonpayable",
      "type": "function"
    },
    {
      "constant": false,
      "inputs": [],
      "name": "getBalanceAmount",
      "outputs": [
        {
          "name": "",
          "type": "bool"
        }
      ],
      "payable": false,
      "stateMutability": "nonpayable",
      "type": "function"
    },
    {
      "constant": false,
      "inputs": [],
      "name": "withdraw",
      "outputs": [
        {
          "name": "",
          "type": "bool"
        }
      ],
      "payable": false,
      "stateMutability": "nonpayable",
      "type": "function"
    }
  ],
  "bytecode": "0x60806040523480156200001157600080fd5b506040516200153738038062001537833981018060405260608110156200003757600080fd5b810190808051906020019092919080516401000000008111156200005a57600080fd5b828101905060208101848111156200007157600080fd5b81518560018202830111640100000000821117156200008f57600080fd5b50509291906020018051640100000000811115620000ac57600080fd5b82810190506020810184811115620000c357600080fd5b8151856001820283011164010000000082111715620000e157600080fd5b5050929190505050336000806101000a81548173ffffffffffffffffffffffffffffffffffffffff021916908373ffffffffffffffffffffffffffffffffffffffff160217905550603c83024201600181905550816004600001908051906020019062000150929190620001db565b5080600460010190805190602001906200016c929190620001db565b506000809054906101000a900473ffffffffffffffffffffffffffffffffffffffff16600460020160006101000a81548173ffffffffffffffffffffffffffffffffffffffff021916908373ffffffffffffffffffffffffffffffffffffffff1602179055505050506200028a565b828054600181600116156101000203166002900490600052602060002090601f016020900481019282601f106200021e57805160ff19168380011785556200024f565b828001600101855582156200024f579182015b828111156200024e57825182559160200191906001019062000231565b5b5090506200025e919062000262565b5090565b6200028791905b808211156200028357600081600090555060010162000269565b5090565b90565b61129d806200029a6000396000f3fe60806040526004361061009c5760003560e01c806362ea82db1161006457806362ea82db146102e857806391f901571461034d578063b62d8ec2146103a4578063c458b65a146103d3578063d321fe29146103fe578063d57bde791461042d5761009c565b80630216f202146100a15780631998aeef146101d05780633a6dcea2146101f25780633ccfd60b1461028a57806358d3e10f146102b9575b600080fd5b3480156100ad57600080fd5b506100b6610458565b6040518080602001806020018473ffffffffffffffffffffffffffffffffffffffff1673ffffffffffffffffffffffffffffffffffffffff168152602001838103835286818151815260200191508051906020019080838360005b8381101561012c578082015181840152602081019050610111565b50505050905090810190601f1680156101595780820380516001836020036101000a031916815260200191505b50838103825285818151815260200191508051906020019080838360005b83811015610192578082015181840152602081019050610177565b50505050905090810190601f1680156101bf5780820380516001836020036101000a031916815260200191505b509550505050505060405180910390f35b6101d86105c0565b604051808215151515815260200191505060405180910390f35b3480156101fe57600080fd5b50610207610a4a565b604051808581526020018481526020018373ffffffffffffffffffffffffffffffffffffffff1673ffffffffffffffffffffffffffffffffffffffff1681526020018273ffffffffffffffffffffffffffffffffffffffff1673ffffffffffffffffffffffffffffffffffffffff16815260200194505050505060405180910390f35b34801561029657600080fd5b5061029f610aac565b604051808215151515815260200191505060405180910390f35b3480156102c557600080fd5b506102ce610c1e565b604051808215151515815260200191505060405180910390f35b3480156102f457600080fd5b506103376004803603602081101561030b57600080fd5b81019080803573ffffffffffffffffffffffffffffffffffffffff169060200190929190505050610ed0565b6040518082815260200191505060405180910390f35b34801561035957600080fd5b50610362610ee8565b604051808273ffffffffffffffffffffffffffffffffffffffff1673ffffffffffffffffffffffffffffffffffffffff16815260200191505060405180910390f35b3480156103b057600080fd5b506103b9610f0e565b604051808215151515815260200191505060405180910390f35b3480156103df57600080fd5b506103e8610f1a565b6040518082815260200191505060405180910390f35b34801561040a57600080fd5b50610413610f20565b604051808215151515815260200191505060405180910390f35b34801561043957600080fd5b50610442611246565b6040518082815260200191505060405180910390f35b6004806000018054600181600116156101000203166002900480601f0160208091040260200160405190810160405280929190818152602001828054600181600116156101000203166002900480156104f25780601f106104c7576101008083540402835291602001916104f2565b820191906000526020600020905b8154815290600101906020018083116104d557829003601f168201915b505050505090806001018054600181600116156101000203166002900480601f0160208091040260200160405190810160405280929190818152602001828054600181600116156101000203166002900480156105905780601f1061056557610100808354040283529160200191610590565b820191906000526020600020905b81548152906001019060200180831161057357829003601f168201915b5050505050908060020160009054906101000a900473ffffffffffffffffffffffffffffffffffffffff16905083565b600060015442111561063a576040517f08c379a000000000000000000000000000000000000000000000000000000000815260040180806020018281038252600f8152602001807f61756374696f6e2074696d656f7574000000000000000000000000000000000081525060200191505060405180910390fd5b60025434116106b1576040517f08c379a000000000000000000000000000000000000000000000000000000000815260040180806020018281038252601d8152602001807f63616e742774206269642c206d616b652061206869676865722042696400000081525060200191505060405180910390fd5b6000809054906101000a900473ffffffffffffffffffffffffffffffffffffffff1673ffffffffffffffffffffffffffffffffffffffff163373ffffffffffffffffffffffffffffffffffffffff161415610774576040517f08c379a00000000000000000000000000000000000000000000000000000000081526004018080602001828103825260168152602001807f41756374696f6e206f776e65722063616e74206269640000000000000000000081525060200191505060405180910390fd5b600360009054906101000a900473ffffffffffffffffffffffffffffffffffffffff1673ffffffffffffffffffffffffffffffffffffffff163373ffffffffffffffffffffffffffffffffffffffff161415610838576040517f08c379a000000000000000000000000000000000000000000000000000000000815260040180806020018281038252601e8152602001807f43757272656e7420486967686573744269646465722063616e7420626964000081525060200191505060405180910390fd5b33600360006101000a81548173ffffffffffffffffffffffffffffffffffffffff021916908373ffffffffffffffffffffffffffffffffffffffff160217905550346002819055506001600860003373ffffffffffffffffffffffffffffffffffffffff1673ffffffffffffffffffffffffffffffffffffffff16815260200190815260200160002054141561092f5760073390806001815401808255809150509060018203906000526020600020016000909192909190916101000a81548173ffffffffffffffffffffffffffffffffffffffff021916908373ffffffffffffffffffffffffffffffffffffffff160217905550505b34600860003373ffffffffffffffffffffffffffffffffffffffff1673ffffffffffffffffffffffffffffffffffffffff1681526020019081526020016000205401600860003373ffffffffffffffffffffffffffffffffffffffff1673ffffffffffffffffffffffffffffffffffffffff168152602001908152602001600020819055507f0d993d4f8a84158f5329713d6d13ef54e77b325040c887c8b3e565cfd0cd3e21600360009054906101000a900473ffffffffffffffffffffffffffffffffffffffff16600254604051808373ffffffffffffffffffffffffffffffffffffffff1673ffffffffffffffffffffffffffffffffffffffff1681526020018281526020019250505060405180910390a16001905090565b600080600080600154600254600360009054906101000a900473ffffffffffffffffffffffffffffffffffffffff166000809054906101000a900473ffffffffffffffffffffffffffffffffffffffff16819150935093509350935090919293565b60008060009054906101000a900473ffffffffffffffffffffffffffffffffffffffff1673ffffffffffffffffffffffffffffffffffffffff163373ffffffffffffffffffffffffffffffffffffffff1614610b0757600080fd5b6001544211610b61576040517f08c379a000000000000000000000000000000000000000000000000000000000815260040180806020018281038252602581526020018061124d6025913960400191505060405180910390fd5b3373ffffffffffffffffffffffffffffffffffffffff166108fc6002549081150290604051600060405180830381858888f19350505050158015610ba9573d6000803e3d6000fd5b507f2f174ca282119315c59efaf21147aef438581dabdeb498198ae28964373dd8bc33600254604051808373ffffffffffffffffffffffffffffffffffffffff1673ffffffffffffffffffffffffffffffffffffffff1681526020018281526020019250505060405180910390a16001905090565b6000600360009054906101000a900473ffffffffffffffffffffffffffffffffffffffff1673ffffffffffffffffffffffffffffffffffffffff163373ffffffffffffffffffffffffffffffffffffffff1614610c7a57600080fd5b6001544211610cd4576040517f08c379a000000000000000000000000000000000000000000000000000000000815260040180806020018281038252602581526020018061124d6025913960400191505060405180910390fd5b60086000600360009054906101000a900473ffffffffffffffffffffffffffffffffffffffff1673ffffffffffffffffffffffffffffffffffffffff1673ffffffffffffffffffffffffffffffffffffffff1681526020019081526020016000205460025410610dac576040517f08c379a00000000000000000000000000000000000000000000000000000000081526004018080602001828103825260138152602001807f4e6f7468696e6720746f2077697468647261770000000000000000000000000081525060200191505060405180910390fd5b600060025460086000600360009054906101000a900473ffffffffffffffffffffffffffffffffffffffff1673ffffffffffffffffffffffffffffffffffffffff1673ffffffffffffffffffffffffffffffffffffffff168152602001908152602001600020540390503373ffffffffffffffffffffffffffffffffffffffff166108fc829081150290604051600060405180830381858888f19350505050158015610e5c573d6000803e3d6000fd5b507f2f174ca282119315c59efaf21147aef438581dabdeb498198ae28964373dd8bc3382604051808373ffffffffffffffffffffffffffffffffffffffff1673ffffffffffffffffffffffffffffffffffffffff1681526020018281526020019250505060405180910390a1600191505090565b60086020528060005260406000206000915090505481565b600360009054906101000a900473ffffffffffffffffffffffffffffffffffffffff1681565b60006001544210905090565b60015481565b60006001544211610f7c576040517f08c379a000000000000000000000000000000000000000000000000000000000815260040180806020018281038252602581526020018061124d6025913960400191505060405180910390fd5b6000809054906101000a900473ffffffffffffffffffffffffffffffffffffffff1673ffffffffffffffffffffffffffffffffffffffff163373ffffffffffffffffffffffffffffffffffffffff16141561103f576040517f08c379a00000000000000000000000000000000000000000000000000000000081526004018080602001828103825260138152602001807f6f776e65722063616e742077697468647261770000000000000000000000000081525060200191505060405180910390fd5b600360009054906101000a900473ffffffffffffffffffffffffffffffffffffffff1673ffffffffffffffffffffffffffffffffffffffff163373ffffffffffffffffffffffffffffffffffffffff161415611103576040517f08c379a000000000000000000000000000000000000000000000000000000000815260040180806020018281038252601b8152602001807f486967686573744269646465722063616e74207769746864726177000000000081525060200191505060405180910390fd5b6000600860003373ffffffffffffffffffffffffffffffffffffffff1673ffffffffffffffffffffffffffffffffffffffff1681526020019081526020016000205490506000600860003373ffffffffffffffffffffffffffffffffffffffff1673ffffffffffffffffffffffffffffffffffffffff168152602001908152602001600020819055503373ffffffffffffffffffffffffffffffffffffffff166108fc829081150290604051600060405180830381858888f193505050501580156111d2573d6000803e3d6000fd5b507f2f174ca282119315c59efaf21147aef438581dabdeb498198ae28964373dd8bc3382604051808373ffffffffffffffffffffffffffffffffffffffff1673ffffffffffffffffffffffffffffffffffffffff1681526020018281526020019250505060405180910390a1600191505090565b6002548156fe63616e27742077697468647261772c2041756374696f6e206973207374696c6c206f70656ea165627a7a72305820f94fbb2bd5142ead96b0c99fcbbcbc0874a5ec59e12fff0c0f4c20ed124f08f90029",
  "source": "pragma solidity ^0.5.0;\n\ncontract Auction{\n    //Declare All State Variables here\n    address internal auction_owner;\n    uint256 public auction_end;\n    uint256 public highestBid;\n    address payable public highestBidder;\n    //Define a constructor for your contract\n    constructor(uint _biddingTime, string  memory _brand, string memory _Rnumber) public {\n        \n        auction_owner = msg.sender;\n        auction_end = now +_biddingTime * 1 minutes;\n        Mycar.Brand = _brand;\n        Mycar.Rnumber = _Rnumber;\n        Mycar.owner = auction_owner;\n        \n    }\n\n\n//Function for get auction details\n\n     function getAuctionDetails() public view returns (uint256,uint256,address,address) {\n       return (auction_end,highestBid,highestBidder,auction_owner);\n   }\n\n    //Define a structure for Vehicle Details\n    struct car{\n        string Brand;\n        string Rnumber;\n        address owner;\n    }\n    car public Mycar;\n\n   //Create a dynamic array to contain all of the bidders address\n    address[] bidders;\n    //Mapping that accepts the bidder's address as the key, and with the value type being the corresponding bid\n    mapping(address => uint) public bids;\n    \n    //Checks whether the bid is can be done\n    modifier bid_conditions(){\n\n        require(now<= auction_end,\"auction timeout\");\n        require(msg.value > highestBid, \"cant't bid, make a higher Bid\");\n        require(msg.sender != auction_owner, \"Auction owner cant bid\");\n        require(msg.sender != highestBidder, \"Current HighestBidder cant bid\");\n        \n        _;\n    }\n\n   //makes the contract ownable\n\n    modifier only_owner(){\n        require(msg.sender == auction_owner);\n        _;\n    }\n\n    //makes the contract ownable\n\n    modifier only_highest(){\n\n        require(msg.sender == highestBidder);\n        require(now> auction_end, \"can't withdraw, Auction is still open\");\n        require(highestBid < bids[highestBidder], \"Nothing to withdraw\");\n        _;\n    }\n    \n//Define Bidding function\n    function bid() public payable bid_conditions returns (bool){\n        \n        highestBidder=msg.sender;\n        highestBid=msg.value;\n        if(bids[msg.sender] == 1) bidders.push(msg.sender);\n        bids[msg.sender]=bids[msg.sender]+msg.value;\n        emit BidEvent(highestBidder,highestBid);\n        return true;\n    }\n\n// check auction ststus\n    function auction_status() public view returns(bool state){\n\n        state = now < auction_end;\n    }\n     \n    //Withdraw function for loosers\n    function getAmount() public returns (bool){\n        \n        require(now> auction_end, \"can't withdraw, Auction is still open\");\n        require(msg.sender != auction_owner, \"owner cant withdraw\");\n        require(msg.sender != highestBidder, \"HighestBidder cant withdraw\");\n\n        \n        uint amount = bids[msg.sender];\n        bids[msg.sender]=0;\n        msg.sender.transfer(amount);\n        emit WithdrawalEvent(msg.sender,amount);\n        return true; \n        }\n\n\n    //Withdraw function for highest bidders initial biddings\n\n    function getBalanceAmount() public only_highest returns (bool){\n        \n        uint amount = bids[highestBidder] - highestBid;\n        msg.sender.transfer(amount);\n        emit WithdrawalEvent(msg.sender,amount);\n        return true; \n    }\n\n    //Withdraw Bid amount to owner address\n\n    function withdraw() public only_owner returns (bool){\n        \n        require(now> auction_end, \"can't withdraw, Auction is still open\");\n        \n        msg.sender.transfer(highestBid);\n        emit WithdrawalEvent(msg.sender,highestBid);\n        return true; \n\n    }\n\n    event BidEvent (address highestBidder,uint256 highestBid);\n    event WithdrawalEvent(address withdrawer,uint256 amount);\n}",
  "sourcePath": "/home/user/auction2019/contracts/auction.sol",
  "compiler": {
    "name": "solc",
    "version": "0.5.8+commit.23d335f2.Emscripten.clang"
  },
  "schemaVersion": "3.0.11",
  "updatedAt": "2019-07-12T04:20:42.556Z",
  "devdoc": {
    "methods": {}
  },
  "userdoc": {
    "methods": {}
  }
}